:020000040800F2
:1000000020080020410200081B2800084F23000898
:1000100019280008EF1300084D2A0008000000000E
:100020000000000000000000000000001F28000881
:10003000F1130008000000001D2800082128000816
:100040005B0200085B0200085B0200085B0200081C
:100050005B0200085B0200085B0200085B0200080C
:100060005B0200085B0200085B0200085B020008FC
:100070005B0200085B0200085B0200085B020008EC
:100080005B0200085B0200085B0200085B020008DC
:100090005B0200085B0200085B0200085B020008CC
:1000A0005B0200085B0200085B0200085B020008BC
:1000B0005B0200085B0200085B0200085B020008AC
:1000C0005B0200085B0200085B0200085B0200089C
:1000D0005B0200085B0200085B0200085B0200088C
:1000E0005B0200085B0200085B0200085B0200087C
:1000F0005B0200085B0200085B0200085B0200086C
:100100005B0200085B0200085B0200085B0200085B
:100110005B0200085B0200085B0200085B0200084B
:100120005B0200085B0200085B0200085B0200083B
:100130005B0200085B0200085B0200085B0200082B
:100140005B0200085B0200085B0200085B0200081B
:100150005B0200085B0200085B0200085B0200080B
:100160005B0200085B0200085B0200085B020008FB
:100170005B0200085B0200085B0200080000000050
:100180005B0200085B02000800F002F800F049F88A
:100190000AA090E8000C82448344AAF10107DA45E2
:1001A00001D100F03EF8AFF2090EBAE80F0013F0EB
:1001B000010F18BFFB1A43F001031847C0320000BB
:1001C000E0320000103A24BF78C878C1FAD852074C
:1001D00024BF30C830C144BF04680C6070470000C1
:1001E0000023002400250026103A28BF78C1FBD840
:1001F000520728BF30C148BF0B607047662903F023
:10020000E480002070471FB503F0D5F800F0B2FB82
:1002100004000020002102F0A7FDE0601FBD10B522
:1002200010BD00F0A7FC1146FFF7EDFF02F03EFC09
:1002300000F0C5FC03B4FFF7F2FF03BC00F008FDBB
:100240000948804709480047FEE7FEE7FEE7FEE76A
:10025000FEE7FEE7FEE7FEE7FEE7FEE704480549A6
:10026000054A064B70470000B928000889010008BC
:10027000200200202008002020040020200400206C
:1002800053EA020C00F069802DE9F04B4FF00006B4
:10029000002B1FBFB3FA83F503FA05F424FA05F621
:1002A0005E4012BF1643B2FA82F502FA05F4C5F1B8
:1002B00020051EBF22FA05FC44EA0C04203556EA4C
:1002C000044C4FEA144418BF641C4FF000084FF070
:1002D0000009904271EB030C39D3002919BFB1FA20
:1002E00081F701FA07F6B0FA80F700FA07F6C7F1CE
:1002F00020071EBF20FA07FC46EA0C062037B6FB93
:10030000F4FCA7EB0507103F07F01F0BCBF120060D
:100310000CFA0BFB2CFA06F644BFB3460026202F3E
:10032000A4BF5E464FF0000B5BEA060C08BF4FF01F
:10033000010B19EB0B09ABFB027C48EB0608C01B59
:1003400006FB02CC0BFB03CC71EB0C01C1E70B46A7
:10035000024641464846BDE8F08B13B54FF0000019
:100360004FF00001AFF30080BDE81C407047000073
:100370000FB47CB50C0009AA009001D02044401EA7
:10038000084B7B4469460190089800F0D2FA054674
:100390001CB10020694600F0DFFA28467CBC5DF8FD
:1003A00014FB0000DD0500002DE9F0474FF0000AC6
:1003B00089460446C0F820A02046E1688847002806
:1003C00076D0252806D0D4E901219047206A401C28
:1003D0002062F1E7E168204600258847C4F81CA0A8
:1003E00006460027C4F818A02A2E09D0304602F08D
:1003F00056FB38B304EB8708303EC8F8186019E0A4
:1004000059F8041B204604EB87029161E168884794
:10041000012F064618D1E069002820DA25F02005D2
:100420001DE0D8F8180000EB800006EB40003038E3
:10043000C8F818002046E1688847064602F02FFBFE
:100440000028EED1012F0AD02E2E08D12046E168D7
:1004500088477F1C0646022F45F02005C4DBA069B3
:10046000002803DA404245F00105A061E80701D009
:1004700025F01005B6B1A6F14100192802D82036A2
:1004800045F400654A463146204625604D46FFF753
:10049000B5FE58B1012806D0ED1D25F0070000F18A
:1004A000080989E704E005F1040985E730468AE791
:1004B000206ABDE8F0874FF0000200B5134694466D
:1004C0009646203922BFA0E80C50A0E80C50B1F1AC
:1004D0002001BFF4F7AF090728BFA0E80C5048BFC0
:1004E0000CC05DF804EB890028BF40F8042B08BF5E
:1004F000704748BF20F8022B11F0804F18BF00F85A
:10050000012B704770477047704770472DE9FF4FC8
:100510000C461E464FF0FF378BB0D2E90001DDF8E4
:1005200060800A908A46C1F30A5505B93D4600210C
:1005300008464FF00000BAF1000F00F4400005DA61
:1005400000EB80004FF4400101EA50004FEA90595F
:10055000B9F1010F00DDB9460A9850EA4A000ED001
:1005600044F61050A5F2FF3545432F14B8F1000FA3
:100570001ED07542291E1EDDC9F100021CE0B8F133
:10058000010F4FF0000001D0302103E0F24305E0FD
:100590002154401CB042FBDB304600220021215494
:1005A0000B99C1F80880C1E900200FB0BDE8F08FB9
:1005B000BD1B6D1CDEE74A4600DA694206A800F062
:1005C00063FA06AB93E8070003AB83E807005046E5
:1005D0000A9900F044FB8DE80700A0F500501F3891
:1005E00000900398002D0ADD42F21F014A4608449C
:1005F000002303A90390684600F0ADFD09E0A0F5D3
:1006000000504A461F38002303A90390684600F0B3
:10061000B7FD8DE807000004000C03D04FF0FF3059
:10062000410800E01046B8F1000F03D0002200920C
:1006300015461EE0751E05D400F0A0F93032625553
:100640006D1EF9D5B3460122084302D000227F1C5B
:1006500004E02078302801D100227F1E002A09976B
:1006600084D01DE0112D07DA00F088F93032625590
:100670006D1C50EA0102F5D1084302D00098C8B1C0
:100680000EE00021681E05E0235C625C6354225486
:10069000401E491C8142F7DBAB46A81B401E099057
:1006A000002004F80B000B98099AC0F80880C0E9F4
:1006B000002B7AE711264FF0000857E72DE9F04F9D
:1006C00088460446D21D22F0070191B0D1E900010D
:1006D000CDE90A0102F0BBF902460B98C00F01D028
:1006E0002D2007E02068810701D52B2002E0202182
:1006F00001EAC000032A099001D0072A05DB03465E
:100700004146204600F080F90BE12078800601D5B3
:10071000E06900E00620B8F1650F814606D0B8F127
:10072000660F18D0B8F1670F70D131E00020B9F131
:10073000110F009001DB112301E009F101030AAA66
:1007400001A90CA8FFF7E2FEDDE90C70002609F113
:100750000105834647E001204B4600904FF00047DB
:100760000AAA01A90CA8FFF7D1FEDDE90DB00C998A
:100770005D46002610B909F101000D18B9EB05001E
:1007800003D4C0F1FF3609F10105A5EB09002BE008
:10079000B9F1010F01DA4FF001090020B9F1110F91
:1007A0000090484601DD112300E003460AAA01A992
:1007B0000CA8FFF7ABFEDDE90C704D460026834622
:1007C000207800070AD4AB4500DA5D4601A8012D68
:1007D00004DD411911F8011C302907D04F4502DA18
:1007E00017F1040F04DA012082460FE06D1EEEE7D8
:1007F000002F02DCED1B3E4403E0781CA84200DD24
:100800007D1CB81B00F1010A4FF00047207800075B
:1008100003D4AA4501DB4FF0FF3A0021B7F1004FA6
:100820000DF143088DF8431024D002202B23002F14
:1008300001DA7F422D230A21021EA0F1010000DC13
:100840005FB197FBF1FC97FBF1F201FB1C7C1746B3
:100850000CF1300C08F801CDEEE7A8F101000370AF
:100860002188090501D5452100E06521A0F1010895
:1008700000F8011C09980FA9A1EB0807FF1D00B1A2
:100880000120411901EBEA70A1693844081A401EA1
:10089000A0612078C00602D42046AFF300800998FA
:1008A00028B1D4E901219047206A401C20622078B9
:1008B000C00622D52046AFF300801EE0002E04DBE8
:1008C000B34502DD01A8805D00E03020D4E90121BC
:1008D0009047206A401C2062761CAAF101005FEA62
:1008E000000A0AD100F046F8C0680168405CD4E90B
:1008F00001219047206A401C2062281EA5F10105B5
:10090000DCDC07E0D4E9012118F8010B9047206AEC
:10091000401C2062381EA7F10107F3DC2046AFF32C
:100920000080032011B041E601694A1C0261087889
:10093000704700B58FB0CDE901310021059105491F
:100940007944CDE9031011466846FFF72DFD0FB03D
:1009500000BD0000E5FFFFFF0A6802F8010B0A6016
:100960007047D1E900239A4202D2531C0B601070E9
:100970007047000000487047E001002030B5B0F13A
:100980000A024FEA900E71F100034EEA817EB0EB4D
:100990000E0061EB91014FEA101E4EEA017E10EB52
:1009A0000E0041EB11114FEA102E4EEA016E10EBD2
:1009B0000E0041EB11214FEA104E4EEA014E10EBB2
:1009C0000E0041EB1141401841F100014FEAD00007
:1009D00040EA41704FEAD10110EB80054FEA8104F3
:1009E00044EA907444EB01046D1944EB0404521B77
:1009F000A3414FF0000348BF0A3200D530BD401C70
:100A000041F1000130BD00002DE9F0411F460446D0
:100A100003260168072A01F4006004DB08B116A56B
:100A200005E016A503E008B115A500E015A521F025
:100A300010002060A069C01EA0610FB1401EA0611F
:100A40002046AFF300804FB1D4E9012138469047EA
:100A5000206A401C2062C01C206206E0206AFAE77F
:100A6000D4E9012115F8010B9047761EF8D22046F3
:100A7000AFF30080BDE8F0814E414E006E616E0024
:100A8000494E4600696E66002DE9F04781461646DC
:100A90008AB0354878440DC88DE80D003248784456
:100AA000801C03AC0DC884E80D0041F69B3008445F
:100AB000372190FBF1F290FBF1F5A5F1800501FBE8
:100AC00012041B3C02D56442012000E00020DFF844
:100AD00098A080460027FA44AAF1BE0A0EE0E0077B
:100AE0000AD03246684607EB470101230AEB810131
:100AF00000F046FB8DE8070064107F1C002CEED14F
:100B0000194F7F44AE3F19E0E80715D007EB0410FA
:100B10000DF1180A90E80E008AE80E00C068F04255
:100B200001D1981908903246012306A903A800F0C4
:100B300027FB03AB83E807006D10641C002DE3D195
:100B40004FF0010332466946B8F1000F03A802D006
:100B500000F001FB01E000F013FBC9E90001C9F856
:100B600008200AB0BDE8F087CC2900000048704793
:100B7000C00100207546FFF7F9FFAE460500694643
:100B8000534620F00700854618B020B5FFF766FBF6
:100B9000BDE820404FF000064FF000074FF000087E
:100BA0004FF0000B21F00701AC46ACE8C009ACE8FF
:100BB000C009ACE8C009ACE8C0098D46704710B563
:100BC0000446AFF300802046BDE81040FFF732BB7B
:100BD0004FF0013C50F8042B51F8043B9A4221D1CC
:100BE000A2EB0C03934313EACC1317D150F8042B58
:100BF00051F8043B9A4215D1A2EB0C03934313EA3C
:100C0000CC130BD150F8042B51F8043B9A4209D174
:100C1000A2EB0C03934313EACC13DBD04FF000009C
:100C2000704700BFD01A01BAB1FA81F101F0180182
:100C300022FA01F0CB40C1F12001DBB2C0B2C01AF0
:100C40002CFA01F3D11A914311EAC311E6D170478E
:100C500001491820ABBEFEE72600020070475FEA9C
:100C6000400C08BF91F0000F4FEA8C234FEAC122DD
:100C700043EA51514FEA1C5018BF00F5F0404FEACB
:100C8000300018BF41F000415FEA6C5C00F0298041
:100C9000BCF1FF3F08BF40F080407047130C06BF17
:100CA00012044FF0100C4FF0000C130E04BF120290
:100CB0000CF1080C130F04BF12010CF1040C930F7C
:100CC00004BF92000CF1020CD30F04BF52000CF1D0
:100CD000010C11464FF00002A0F11F00A0EB0C0028
:100CE000704711F0004F08BF704731F000413FF4EA
:100CF000D5AF0B0C06BF09044FF0100C4FF0000CE1
:100D00000B0E04BF09020CF1080C0B0F04BF090104
:100D10000CF1040C8B0F04BF89000CF1020CCB0FFB
:100D200004BF49000CF1010CCCF12003A0EB0C0036
:100D300022FA03F302FA0CF241EA030100F1010086
:100D4000704720F07F4C80EA030023F07F47ACEB34
:100D5000070303F57C5300F0004003F1FF032DE986
:100D600080494FEA154B09B44FEA144325EA0B4E6C
:100D700024EA03480FF2042606EB132749083E78BD
:100D80005FEA320203FB0667C7F5000707FB06F6BA
:100D90004FEA54374FEAD64606F1020607FB066CC7
:100DA000CCF1005C4FEA1C472CEA074C07FB06F429
:100DB0000CFB06F504EB15464FEA961634BF0020EF
:100DC0004FF000404FEAD13706FB07FC4FEA1C4CBE
:100DD0000CFB0BF7D21B03FB0CF761EB07010CFBC1
:100DE0000EF7B0EB074072EB17420CFB08F734BF6D
:100DF000A2EB0742B2EB074261EB17414FEA0C440A
:100E00004FEA910706FB07FC4FEA1C4C0CFB0BF763
:100E1000B0EBC74072EB573203FB0CF734BFA2EBC9
:100E2000C742B2EBC74261EB57310CFB0EF7B0EB98
:100E3000C70072EB57720CFB08F734BFA2EBC70276
:100E4000B2EBC70261EB5771039F4FEA816141EA40
:100E5000921104EBCC044FEAD1374FEA826206FBD1
:100E600007FC42EA90124FEA80604FEA1C4C0CFBF0
:100E70000BF7D21B03FB0CF761EB07010CFB0EF722
:100E8000B0EB074072EB17420CFB08F734BFA2EB44
:100E90000742B2EB074261EB17414FEA8C554FEA2C
:100EA000910704EB9C2406FB07FC4FEA1C4C0CFB4F
:100EB0000BF7B0EBC74072EB573203FB0CF734BFB4
:100EC000A2EBC742B2EBC74261EB57310CFB0EF706
:100ED000B0EBC70072EB57720CFB08F734BFA2EB04
:100EE000C702B2EBC70261EB577115EB4C254FEA15
:100EF000816141EA92114FEA82624FEAD13742EAB8
:100F0000901206FB07FC44F100044FEA80604FEAB0
:100F10001C4C0CFB0BF7D21B03FB0CF761EB07011E
:100F20000CFB0EF7B0EB074072EB17420CFB08F717
:100F300034BFA2EB0742B2EB074261EB174115EB5E
:100F40001C154FEA813141EA92414FEA823242EA6E
:100F500090424FEA80304FEA0C7644F1000448EAB0
:100F600003434EEA0B484FF0000EB2EB080C71EB56
:100F7000030724BF624639464EEB0E0E4FF0000BBE
:100F80000018524149414BEB0B0BB2EB080C71EBD3
:100F900003077BF1000B24BF624639464EEB0E0E71
:100FA0004FF0000B0018524149414BEB0B0BB2EBD9
:100FB000080C71EB03077BF1000B24BF6246394636
:100FC0004EEB0E0E51EA020718BF46F0010616EB73
:100FD0000E7655F1000254F1000103D5BDE88901F8
:100FE000BDE80088BDE88901BDE80048B619524156
:100FF00041EB0101A3F10103704780807F7E7D7C7E
:101000007B7A7978777676757473727171706F6E9A
:101010006E6D6C6C6B6A6A69686867666665646445
:10102000636362616160605F5F5E5E5D5D5C5C5BCF
:101030005B5A5A595958585757565655555554543E
:10104000535352525251515050504F4F4F4E4E4D9C
:101050004D4D4C4C4C4B4B4B4A4A4A4949494848E8
:101060004847474747464646454545444444444328
:1010700043434342424242414141002B9C4630D4CB
:1010800077002BD01CB54FEA370703B44FF01000A0
:101090004FF01001BAF1000F06D0BCF1000FDCBF19
:1010A00040F0080040F008014FF000000FBCBDE820
:1010B00010400BF1010BBBF1010F08BF5FEA1707EE
:1010C00022BF12F1010211F101014FF0004143F181
:1010D000000300F0004043EA00007047F9D35708CE
:1010E000D0E746EA064613F1400F4FEA16461FDDE9
:1010F00013F1200FDFBF16430A46002120335B4265
:10110000BED0C3F1200746EA064602FA07F74FEAC7
:10111000164646EA0706C3F1200722FA03F201FA4F
:1011200007F721FA03F14FF0000342EA0702A7E7AD
:1011300046EA020646EA06464FEA164646EA01062F
:10114000BCBF46EA0646360C4FF000034FF00002E3
:101150004FF0000194E72DE9804C9A46934670B415
:1011600091E8380007C831EA400C48BF34EA430C24
:1011700003D5FFF7E6FDFFF780FFF0BCBDE8008C6C
:101180002DE9804C9A46934670B491E8380007C820
:1011900010F0804F08BF13F0804F03D100F005F826
:1011A000FFF76BFFF0BCBDE8008C20F07F4780EAC2
:1011B000030023F07F4C07EB0C03A3F57C5300F0F6
:1011C0000040A3F1FE0392F0000F00F0B38095F011
:1011D000000F00F077802DE901494FEA11404FEAF6
:1011E000144621EA004800FB06FC24EA064708FBF7
:1011F00006F607FB08F800FB07F718EB06484CEB70
:10120000164C4FEA124B18EB07484FEA15464CEBC9
:10121000174022EA0B4E0BFB06FC25EA06470EFBA5
:1012200006F607FB0EFE0BFB07F71EEB064E4CEB1C
:10123000164C4FF000061EEB074E4CEB174B18EB0D
:101240000B0840F1000018EB0E0B58EB000840F1C2
:1012500000008F1A4FF000013CBFC943661B14BF4A
:10126000B5EB040C00213CBFC943F61B4FEA174401
:101270004EEA8E0E27EA04454FEA1C4704FB07623C
:101280002CEA074C05FB07F70CFB05F604FB0CFCEE
:1012900016EB074642EB174216EB0C4642EB1C429C
:1012A0001BEB060658EB0202414146EA9E0601D5B9
:1012B000BDE80189B619524141EB0101A3F10103D7
:1012C000BDE801894FEA14454FEA114724EA054673
:1012D00021EA074C05FB07F406FB07F70CFB06F1B8
:1012E00005FB0CFC11EB074144EB17444FEA124796
:1012F00011EB0C4144EB1C4422EA074C05FB07F2BE
:1013000006FB07F70CFB06F605FB0CFC16EB074685
:1013100042EB174216EB0C4642EB1C456A1854F19F
:10132000000148BF7047B619524141EB0101A3F1DA
:101330000103704795F0000F37D04FEA11424FEA92
:10134000144721EA024624EA074C02FB07F106FB98
:1013500007F70CFB06F402FB0CFC14EB074441EB13
:1013600017414FEA154714EB0C4441EB1C4125EAA9
:10137000074C02FB07F506FB07F70CFB06F602FB22
:101380000CFC16EB074645EB174516EB0C4645EBF8
:101390001C42121951F1000148BF7047B619524161
:1013A00041EB0101A3F1010370474FEA14454FEAF5
:1013B000114724EA054621EA074C05FB07F106FB25
:1013C00007F70CFB06F24FF0000605FB0CFC12EBD6
:1013D000074241EB174112EB0C4251EB1C4148BF55
:1013E0007047921841EB0101A3F101037047FEE73A
:1013F000704772B6FEE7000070B5044600F014F9BD
:101400000546601C02D004480078044400F00CF942
:10141000401BA042FAD370BD000000202DE9F84F18
:10142000DFF8BCA10022012503264FF00F090AF1C5
:10143000040BAAF1040E00BF0B6805FA02F4234066
:10144000A34270D10F7907F00307012F01D0022FBB
:1014500016D187684FEA420806FA08FC27EA0C070B
:10146000D1F80CC00CFA08FC4CEA070CC0F808C014
:101470004768A7430C79C4F3001494403C4344608C
:101480000C79E443A4070AD0C4684FEA420C06FA78
:101490000CF7BC438F6807FA0CF72743C7600C7939
:1014A00004F00304022C12D1D40800EB840CDCF805
:1014B00020405707FF0E09FA07F824EA0804D1F87C
:1014C000108008FA07F848EA0408CCF8208004687D
:1014D0004FEA420C06FA0CF7BC430F7907F00307FA
:1014E00007FA0CF7274307604C6814F4403F70D0AC
:1014F0003C4C276847F480472760246822F00307A4
:1015000004F480440094384C07EB040CDCF80848E1
:1015100097074FEA177809FA08F7BC43334FB842E8
:1015200002D1002724E054E0314FB84201D1012715
:101530001EE0304FB84201D1022719E02E4FB842C9
:1015400001D1032714E02D4FB84201D104270FE049
:101550002B4FB84201D105270AE02A4FB84201D1EA
:10156000062705E0284FB84201D1072700E00827E9
:1015700007FA08F72743CCF80878DAF8004057460E
:10158000D1F804C09C435FEACC2C00D51C433C60DE
:10159000DBF800405F46D1F804C09C435FEA8C2C26
:1015A00000D51C433C60DEF800407746D1F804C00B
:1015B0009C435FEA8C3C00D51C433C60084F083FCD
:1015C0003C68D1F804C09C435FEACC3C00D51C4386
:1015D0003C60521C102AFFF42FAFBDE8F88F0000CA
:1015E000083C014044380240003001400000024005
:1015F0000004024000080240000C024000100240BB
:101600000014024000180240001C0240426921EA16
:1016100002030A4043EA0241816170470AB18161D5
:1016200070470904FBE7000001488068704700002C
:101630000000002070B5040025D094F83D0000257E
:1016400020B984F83C50204600F04CFA242084F85D
:101650003D002068016821F00101016020680168F7
:1016600041F4004101602068016821F400410160FB
:1016700000F092FB4D4A6168914201D84C4900E06C
:101680004C49884201D2012070BD4B492368B0FB10
:10169000F1F15E6826F03F060E435E606368934298
:1016A00006D94FF4967359434FF47A73B1FBF3F1B3
:1016B0002368491C1E6A26F03F063143196261689F
:1016C000914210D84900401EB0FBF1F2521CC2F307
:1016D0000B02042A01D2042022E0B0FBF1F0401CEE
:1016E000C0F30B001CE0A268F2B301EBC10303EBF3
:1016F0000116431EB3FBF6F35B1C43F480431B054A
:1017000049D092B301EBC10202EB0111401EB0FBC4
:10171000F1F0401CC0F30B0040F4804040F4004066
:101720002168CA694CF6FF739A431043C861D4E933
:10173000071001432068026822F0C00211430160D3
:10174000D4E9030101432068826848F2FF339A43D9
:1017500011438160D4E9050108432168CA6822F079
:10176000FF021043C86001E00EE016E02068016847
:1017700041F0010101602564202084F83D002563CB
:1017800084F83E50002070BD01EB4106431EB3FBC0
:10179000F6F35B1CB3E70120C2E701EB4101401EF9
:1017A000B0FBF1F0401CC0F30B00B7E7A0860100CE
:1017B00080841E0000093D0040420F002DE9FF4FCC
:1017C00083B09A46DDE9119793460446DDF84080E0
:1017D000FFF72AFF054694F83D00202870D1192311
:1017E000012271492046009500F0C2FE0028F5D183
:1017F00094F83C00012863D0012084F83C00206864
:101800000168C90703D1016841F001010160206846
:10181000016821F400610160222084F83D0040202D
:1018200084F83E0000262664C4F82480A4F82A9098
:10183000608D20855D48E062CDE9007553465A46CB
:101840002046049900F09CFD00287CD1208DD0B169
:10185000012821D00228206824D0416980690090A5
:10186000208D032869D801282BD0514902283B46F6
:101870004FF00002009559D08846204600F078FECF
:10188000002860D13CE020684169816900910168CD
:1018900041F40071016077E02068016821F4806103
:1018A0000160F0E7016821F480610160206801684F
:1018B00041F400610160206841698069009063E043
:1018C0006FE02A463946204600F0D1FE98BB2068DA
:1018D0000069616A08704EE02068016841F4007197
:1018E000016020680069616A0870606A401C60627B
:1018F000218D491E2185618D491E6185216838E051
:101900002068016821F48061016020680069616AD3
:101910000870606A401C6062208D401E2085608DCA
:10192000401E60853B46002241460095204600F05F
:101930001FFE00B9D0E706E0FFE72A4639462046F9
:1019400000F095FE18B1012007B0BDE8F08F2068C7
:101950000069616A0870606A401C6062218D491EDE
:101960002185618D491E618521684A69D2435207EC
:101970000AD409690170606A401C6062208D401EB3
:101980002085608D401E6085208D00287FF468AF23
:10199000202084F83D0084F83E6084F83C600020FC
:1019A000D2E70220D0E70000020010000000FFFF95
:1019B000040001002DE9FF4F83B09A46DDE911973D
:1019C00093460446DDF84080FFF72EFE054694F866
:1019D0003D0020287FD1192301224049204600954F
:1019E00000F0C6FD002876D194F83C00012872D0A2
:1019F000012084F83C0020680168C90703D1016810
:101A000041F0010101602068016821F4006101607A
:101A1000212084F83D00402084F83E000026266402
:101A2000C4F82480A4F82A90608D20852C48E062B8
:101A3000CDE9007553465A462046049900F01EFD34
:101A400070B930E02A463946204600F043FE58B1CE
:101A5000206C042804D12068016841F40071016001
:101A6000012007B0BDE8F08F606A21680078086146
:101A7000606A401C6062218D491E89B22185628D99
:101A8000521E628522685369DB435B070BD469B140
:101A900000781061606A401C6062208D401E2085C5
:101AA000608D401E6085208D0028CBD12A463946A6
:101AB000204600F037FD0028CAD154F83D0B0168DC
:101AC00041F400710160202004F81E09E677667772
:101AD0000020C6E7FFE70220C3E700000200100075
:101AE0000000FFFF10B586B0044614216846FEF7DB
:101AF000E2FC13492068884220D112480021026884
:101B000042F002020260006800F002000590C0206E
:101B100000901220CDE901010320039004200490DD
:101B200069460948FFF77AFC06481030016841F41D
:101B300000110160006800F40010059006B010BDAF
:101B400000540040303802400004024002488168DE
:101B50000278114481607047000000200B4810B5E6
:101B6000016841F400710160016841F48061016025
:101B7000016841F480710160032000F061F80F20DA
:101B800000F006F800F024F8002010BD003C0240F0
:101B900070B50D4D04464FF47A712878B1FBF0F022
:101BA0000A490968B1FBF0F000F0FCFA48B9102CC2
:101BB00007D200222146501E00F022F800206C605F
:101BC00070BD012070BD0000000000200C0000204E
:101BD0000A4808B5016841F480410160006800F4DA
:101BE000804000900548001F016841F0805101606D
:101BF000006800F08050009008BD000044380240AA
:101C0000F0B40E4B1B680C46C3F30223C3F1070567
:101C1000042D00D90425191D072901D2002300E055
:101C2000DB1E012606FA05F1491E214099409E401F
:101C3000761E16403143F0BC00F021BF0CED00E0F1
:101C4000064900F0070208684FF6FF03184040EA13
:101C50000220034A10430860704700000CED00E0CA
:101C60000000FA052DE9F0470E46050065D0DFF8C3
:101C70001481D8F80000F7B200F00700B04207D294
:101C800088F80070D8F8000000F00700B04254D186
:101C900028683D4C810712D5400703D5206840F4E1
:101CA000E05020602878000703D5206840F46040A9
:101CB00020602068A96820F0F000084320602878A0
:101CC000C0072DD0304968680839012812D0022891
:101CD00013D0032811D00968890700292DDA21685B
:101CE00021F0030101432160FFF79EFC814641F290
:101CF000883A0EE009688903EFE709688901ECE793
:101D0000FFF792FCA0EB0901514502D90320BDE881
:101D1000F0872068696800F00C00B0EB810FEFD10C
:101D2000D8F80010404601F00701B14207D907700A
:101D3000006800F00700B04201D00120E7E72878F2
:101D4000400705D52068E96820F4E050084320608A
:101D50002878000706D52068296920F4604040EA09
:101D6000C100206000F038F82168084AC1F303116F
:101D7000515CC8400649086006480068FFF708FF44
:101D80000020C4E7003C024008380240CE3300087F
:101D90000C00002004000020044805490068096880
:101DA000044AC1F38221515CC84070470C000020F6
:101DB00008380240DE330008044805490068096815
:101DC000044AC1F34231515CC84070470C00002006
:101DD00008380240DE330008154810B5006810F0DE
:101DE0000C02144813D04110042A0FD0082A0ED137
:101DF0000F4C241F2268236802F03F025B0207D5C4
:101E00002068C0F38810A0FB010106E0084610BD61
:101E10002168C1F38811A1FB00010023FEF730FA0D
:101E20002168C1F30141491C4900B0FBF1F010BD2C
:101E3000083802400024F4002DE9F84F04006ED069
:101E40002078DFF84C93C007A9F104054AD009F1C6
:101E500004000168C1F38101012908D00068C0F3C2
:101E6000810002280AD1D9F80000400206D528686E
:101E7000800337D560680028E1D033E06068B0F5B2
:101E8000803F10D0B0F5A02F286810D020F480300B
:101E90002860286820F4802028606068A8B1FFF7D7
:101EA000C3FB06460DE0286840F48030F4E740F4B8
:101EB00080202860F7E700BFFFF7B6FB801B64288F
:101EC00073D828688003F7D50CE0FFF7ADFB064612
:101ED00005E000BFFFF7A8FB801B6428F0D8286846
:101EE0008003F7D42078DFF8AC8280074FF0000A37
:101EF0003ED5A748001D016811F00C0F08D00068FE
:101F0000C0F3810002280BD1D9F80000400207D4A9
:101F10002868800716D5E068012800D112E033E177
:101F2000E068B8B10120C8F80000FFF77DFB064665
:101F300005E000BFFFF778FB801B0228C0D82868A7
:101F40008007F7D52868216920F0F80040EAC10031
:101F500028600DE0C8F800A0FFF766FB064604E025
:101F6000FFF762FB801B02281FD828688007F7D480
:101F70002078000722D5864F87486169703771B194
:101F800001210160FFF750FB064604E0FFF74CFB20
:101F9000801B022809D838688007F7D50EE0C0F802
:101FA00000A0FFF741FB064605E082E0FFF73CFB9F
:101FB000801B02287DD838688007F7D42078400736
:101FC00068D5DFF8CCB100270BF13C0BDBF8000043
:101FD000C0000BD4DBF8001041F08051CBF80010AA
:101FE000DBF80000012700F0805000906B4E306855
:101FF000C00510D4306840F480703060FFF714FBE7
:10200000009005E0FFF710FB0099401A022850D815
:102010003068C005F6D55E4EA0686C3601280FD03A
:102020000528306810D020F001003060306820F0C2
:1020300004003060A068B8B1FFF7F6FA00900FE036
:10204000306840F00100F4E740F004003060F7E74A
:10205000FFF7EAFA0099411A41F28830814266D8C6
:1020600030688007F4D50EE0FFF7DEFA009007E055
:10207000FFF7DAFA0099411A41F28830814256D8C6
:1020800030688007F4D42FB1DBF8001021F08051C4
:10209000CBF80010A069C8B33D49091D0968C1F318
:1020A000810102294AD00228504607D0C8F86000B2
:1020B00000E03CE0FFF7B8FA04463BE04746C8F8CA
:1020C0006000FFF7B1FA064605E000BFFFF7ACFA83
:1020D000801B02282BD828688001F7D4D4E9070197
:1020E0000843A16A2E4A490802EB0141626A41EAAB
:1020F0008211084394F82C1040EA0161C9F80010DD
:1021000001203866FFF790FA044606E03EE000BF83
:10211000FFF78AFA001B022809D828688001F7D542
:1021200034E000BFFFF780FA001B022802D9032029
:10213000BDE8F88F28688001F4D427E00128F7D0A3
:10214000D9F80000E26900F4800191421CD1226AB2
:1021500000F03F01914217D147F6C071626A014019
:10216000B1EB821F10D1A26A4FF0FF3300F440316F
:1021700003EB5202B1EB024F06D194F82C1000F0A1
:102180007060B0EB016F01D00120D1E70020CFE7F4
:102190000438024000004742800E47420070004071
:1021A0000000FFFF10B5401EB0F1807F01D3012079
:1021B00010BD4FF0E02460610F21601700F05FFC5C
:1021C0000020A06107202061002010BD70B5040030
:1021D00004D094F83D00002510B106E0012070BD48
:1021E00084F83C50204600F023F8242084F83D0079
:1021F0002068C16821F40051C160204600F064FBF2
:102200002068016921F4904101612068416921F051
:102210002A0141612068C16841F40051C160256410
:10222000202084F83D0084F83E00002070BD0000AE
:1022300010B586B0044614216846FEF73CF91449EF
:102240002068884221D113480021026842F0100220
:102250000260006800F0100005900E481438026813
:1022600042F001020260006800F0010005904FF4A6
:10227000C06000900220CDE90101032003900720F7
:10228000049069460448FFF7C9F806B010BD000085
:102290000010014044380240000002402DE9F8439C
:1022A000044690F83D001F4616460D4620284CD1A6
:1022B000C5B1BEB194F83C00012846D0012084F895
:1022C0003C004FF00008C4F84080212084F83D0015
:1022D000FFF7AAF9A6848146E684A068B0F5805F7E
:1022E00003D004E00120BDE8F883206928B12E4620
:1022F0005FF0000584F83C800EE00026FAE78021BC
:10230000204600F067FBA0B9AEB116F8010B2168BA
:102310004860E08C401EE084E08C4B464FF00002A9
:1023200000970028EBD14FF04001204600F052FB0F
:1023300030B10320D7E735F8020BC0F30800E6E719
:10234000202084F83D000020CDE70220CBE7FEE707
:1023500001684A69D24352050FD46FF480624A6122
:10236000002140F8301F202242738173026942F03D
:1023700004020261017301207047002070470000D1
:102380002DE9F84F0446006889460B9D0168984680
:10239000174641F4806101602068016841F4807152
:1023A000016000954FF0011B0022594620460A9B10
:1023B00000F0DEF84FF4007A40B120680068C005F4
:1023C00001D5C4F840A00320BDE8F88F216809F0CA
:1023D000FE0008612B46284920460A9A00F0FCF8C6
:1023E000F0BB20684169806900902A4620460A991E
:1023F00000F070F940B1206C04283AD120680168DF
:1024000041F40071016034E0FEB2B8F1010F09D06F
:102410002168380A08612A4620460A9900F05AF9CC
:102420000028E8D1206806612A4620460A9900F073
:1024300051F90028DFD12068016841F48071016002
:1024400000950022594620460A9B00F091F800288A
:10245000B3D1216809F0FF0040F00100086100E0FD
:1024600007E02B46044920460A9A00F0B5F80028F8
:10247000AAD00120A8E70000020001002DE9F843DE
:10248000044600680D46DDE908970168984616463F
:1024900041F4807101604B4600224FF0011120464B
:1024A000009700F065F848B120680068C00502D5C3
:1024B0004FF4007020640320BDE8F883216805F024
:1024C000FE0008613B464A461549204600F084F864
:1024D00088B920684169806900903A46494620469B
:1024E00000F0F8F848B1206C042804D12068016895
:1024F00041F4007101600120DEE7F5B2B8F1010F8F
:1025000009D02168300A08613A464946204600F061
:10251000E1F80028E7D1206805610020CCE7000041
:102520000200010070B516460D4604460DE0204637
:10253000FFF70EFF08B1012070BD681C05D0FFF742
:1025400073F8801BA84207D835B120684069C043A2
:102550004007ECD4002070BD002044F8300F20214B
:102560006173A073216941F0200121612073E2E7CA
:102570002DE9F0471E4690460D460446C1F3074735
:10258000DDF8209008E0701C06D0FFF74DF8A0EBB6
:102590000900B0420FD876B12068012F18D08069A9
:1025A00025EA00000004000C14D000214145EAD0C7
:1025B0000020BDE8F087002044F8300F202161732F
:1025C000A073216941F02001216120730120F0E70F
:1025D0004069E5E70121E9E72DE9F0479A46914690
:1025E0000E46044600254FF02008C1F3074725E0BA
:1025F00020684069C043400514D42068016841F454
:102600000071016021686FF480604861256384F87F
:102610003D8084F83E50206C40F00400206484F833
:102620003C501FE0B9F1FF3F08D0FEF7FDFFA0EBE3
:102630000A0149450CD8B9F1000F09D02068012FD3
:1026400013D0806926EA00000004000C0BD0CFE70D
:1026500044F8305F84F80D80A573206940F02000B5
:10266000206125730120BDE8F0874069EAE72DE984
:10267000F041002590460E460446202717E04069A9
:10268000C043C0060CD454F8301B6FF010004861F2
:1026900044F810596777A577206A2062257717E0FC
:1026A000FEF7C2FFA0EB0800B04208D83EB1206898
:1026B0004169C9434906E2D40020BDE8F08144F8ED
:1026C000305F6773A573206940F020002061257397
:1026D0000120F2E770B516460D4604460DE020468F
:1026E000FFF736FE08B1012070BD681C05D0FEF76B
:1026F0009BFF801BA84207D835B120684069C043C2
:102700000006ECD4002070BD002044F8300F2021DA
:102710006173A073216941F0200121612073E2E718
:1027200070B586B014216846FDF7C5FE1A4800242E
:10273000016841F004010160016801F004010591A4
:10274000016841F080010160016801F0800105919C
:10275000016841F001010160016801F0010105918A
:10276000016841F00201016000680C4E00F00200B7
:102770004FF400550590002229463046FEF74EFFE3
:1027800001200095CDE90104694630460394FEF727
:1027900045FE06B070BD000030380240000802401F
:1027A0000D4810B50B4901600C49416000214FF400
:1027B00080428160C0E9031241618161C1610162AF
:1027C000FEF738FF002803D0BDE81040FEF711BE29
:1027D00010BD00000054004028010020A086010028
:1027E0000C4810B50A4901604FF4E1314160002105
:1027F00081600C22C160C0E904128161C161FFF7F0
:10280000E5FC002803D0BDE81040FEF7F2BD10BD86
:10281000001001407C010020FEE7FEE77047704792
:10282000FFF794B930B593B030216846FDF743FE09
:1028300014210CA8FDF73FFE1D480025016841F05A
:1028400080510160006800F08050119019480168C3
:1028500041F4804101600068022400F4804011903E
:1028600001200090000401908001CDE9064008AAF3
:102870000420A82182E813000B906846FFF7DCFAD9
:1028800008B172B6FEE70CA90F2081E831004FF4C1
:10289000A0500F904FF48050109005210CA8FFF726
:1028A000E1F9002801D072B6FEE713B030BD000098
:1028B00040380240007000400248016841F4700155
:1028C0000160704788ED00E070B50446006801695A
:1028D000E26821F44051114301612169A068E26975
:1028E00008436169114308432168CA6849F20C63CF
:1028F0009A430243CA6020684169A26921F4407189
:102900001143416131492068884202D030498842F0
:1029100002D1FFF751FA01E0FFF73EFAE269002326
:10292000192164253226B2F5004F626828D0A0FB39
:102930000101930F9200FDF7A3FC0146B0FBF5F0F7
:102940006FF01802504301EB800006EB0010B0FB63
:10295000F5F000F0F002B1FBF5F002EB0012B1FB74
:10296000F5F06FF01803584301EB800006EB001000
:10297000B0FBF5F000F00F0021681044886070BDD6
:10298000A0FB010192185B41FDF77AFC0146B0FB08
:10299000F5F00201B1FBF5F06FF01803584301EBBD
:1029A000800006EBC000B0FBF5F000F0F80002EB91
:1029B0004002B1FBF5F0584301EB800006EBC0008C
:1029C000B0FBF5F000F00700D6E700000010014072
:1029D000001401402DE9F041984617460E46044682
:1029E000069D27E0681C25D02DB1FEF71DFEA0EB4B
:1029F0000800A8421ED920680C3050E8001F21F4BE
:102A0000D07140E80012002AF5D12068143050E857
:102A1000001F21F0010140E80012002AF5D120201A
:102A200084F83D0084F83E00002084F83C00032038
:102A3000BDE8F0812068006836EA000004D000207C
:102A4000B842CFD00020F3E70120F9E7FEE703B456
:102A500001984100009850EAC12018BF04204A0D97
:102A600018BF40F0010040F2FF72B2EB515F08BFA7
:102A700040F00200012808BF052002B07047090796
:102A8000090E002804DB00F1E02080F800147047F4
:102A900000F00F0000F1E02080F8141D704730387E
:102AA0000A2801D201207047002070478CB0FFF740
:102AB00055F8FFF7B7FEFFF733FEFFF791FEFFF77C
:102AC0006FFE00F011F92D4D4FF4005438B9214636
:102AD0002846FEF79BFD4FF4FA70FEF78DFC14209C
:102AE000FEF78AFC4FF400512448FEF78FFD24487E
:102AF00000F05EF822480C3000F0A8F8DFF8808083
:102B000008F10C08D8F8080000F0E4FB06460F4670
:102B1000D8F8040000F0DEFB04460D46D8F80000AB
:102B200000F0D8FBCDE900011548806800F0D2FB29
:102B3000824613488B46406800F0CCFB8046104824
:102B40008946006800F0C6FB024608A80B4680E8EC
:102B5000F000DDE900018DE80C0FCDE9060109A2C6
:102B60004FF480711048FDF703FC82B24FF47A7382
:102B70000D490E48FFF792FBB1E700000008024044
:102B8000100100202F2A252E31662C252E31662C8F
:102B9000252E31662C252E31662C252E31662C25CE
:102BA0002E31662A2F000000100000207C0100203A
:102BB00070B504462DED028B86B000200390049082
:102BC0004FF47A72062103A88DE8070001233B2207
:102BD000D0211B48FEF7F2FD20B1002006B0BDEC6D
:102BE000028B70BDBDF80E10BDF80C0049BA0EB2D4
:102BF000BDF8101040BA49BA00B20DB200F054FA54
:102C00009FED108B53EC182B00F066FA00F0C2F821
:102C10002060304600F048FA53EC182B00F05CFAC4
:102C200000F0B8F86060284600F03EFA53EC182B2C
:102C300000F052FA00F0AEF8A0600120CEE70000EC
:102C400028010020000000000000103F70B504467D
:102C50002DED028B86B00020039004904FF47A7221
:102C6000062103A88DE8070001234322D0211B4839
:102C7000FEF7A4FD20B1002006B0BDEC028B70BDB4
:102C8000BDF80E10BDF80C0049BA0EB2BDF8101018
:102C900040BA49BA00B20DB200F006FA9FED108BAF
:102CA00053EC182B00F0A8F800F074F820603046C0
:102CB00000F0FAF953EC182B00F09EF800F06AF8D7
:102CC0006060284600F0F0F953EC182B00F094F8FF
:102CD00000F060F8A0600120CEE70000280100208D
:102CE00000000000006060407FB5012503A8CDE929
:102CF00000054FF47A742B467522D02102941948AE
:102D0000FEF75CFD9DF80C00682802D0002004B09E
:102D100070BD00260096CDE9015401236B22D0211D
:102D20001048FEF747FE0720CDE9000501236B227E
:102D3000D02102940B48FEF73DFE0096CDE90154E8
:102D400001231C22D0210748FEF734FE0096CDE96E
:102D5000015401231B22D0210248FEF72BFE012043
:102D6000D5E700002801002010B500290AD0087816
:102D7000002807D005487844FDF72AFF002801D035
:102D8000002010BD0248784410BD00002607000056
:102D90001E07000021F00042A2F16052B2F5801F30
:102DA00001F0004328BFD2F17F6C0BD95FEA001C11
:102DB00043EAC20242EB507018BF704728BF20F0B0
:102DC00001007047B2F5801FBCBF184670474FEA3C
:102DD000410C1CF5001F02D2084600F0F1BA70B594
:102DE00000F024FA00000089FFF7F6BF4FF0004022
:102DF000A0F58000704700002DE9C04130B4DFF835
:102E0000A0C23CEA111418BF3CEA131400F0EC8095
:102E100081EA03051CEA111444EAD57418BF1CEAC0
:102E2000131500F0C780A4EB05044FF0004545EAF8
:102E3000C12145EAC32341EA505143EA525304F108
:102E40007F74994204F500344FEAC0204FEAC22251
:102E500008BF904200F09C804FEA13650FF24016C5
:102E6000765D4FEA134506FB05F7C7F1807706FB51
:102E700007F74FEAD737A7FB03687642C8F58038D3
:102E8000A7FB06CE38BFA8F1010807FB08E64FF004
:102E9000000EA6FB028CE6FB03CEDCF1000CCEF1AB
:102EA000004E38BFAEF1010EA6FB0C584FF00007E4
:102EB0004FF00005E6FB0E87A1FB08C6A0FB07CE7E
:102EC00016EB0E0645F10005E1FB076515F1E04E36
:102ED0007EBFA4F580345FEA46066D4116F1800797
:102EE00045F100054FEA17274FEA066647EA0567EE
:102EF000A6F1DE46B6F1805F4FEA15251FD93846A8
:102F000024F0010C05EBC471BCF1FE6F01EB0C1158
:102F100002D8F0BCBDE8008124425CBF01F5801EF0
:102F20009EEAC47F02D4F0BCBDE80081244238D4BC
:102F3000F0BCA1F1C041BDE8004100F0C5B94FEAC5
:102F4000D22242EA43524FEAD323A7FB02864FEA3A
:102F5000D02040EA415007FB03661EEA0E0F4FEAFD
:102F6000D12105FB026658BFA6EB0056B6EB005612
:102F70004FEA520E4EEAC37E18EB0E0E56EB530E7E
:102F8000BDD518EB02085E417F1C55F10005B6E780
:102F90004FF480154FF000074FF000064FF0000887
:102FA000ADE7F0BC4FF0000001F1C04101F000417D
:102FB000BDE8008111EA0C1F0CEA131500D00CE0EB
:102FC00013EA0C1F00F025804FF00000F0BC81EAEE
:102FD000030101F00041BDE80081F0BCBDE8004103
:102FE00081EA030100F070B9F0BCBDE8004170B5A2
:102FF00000F01CF9097EFC3E00F007B881EA0301ED
:103000004FF0000001F00041704781EA030100F039
:103010005BB9F0BCBDE800414FF0000021497047AA
:10302000FFFDFBF9F7F5F4F2F0EEEDEBE9E8E6E48D
:10303000E3E1E0DEDDDBDAD8D7D5D4D3D1D0CFCD14
:10304000CCCBCAC8C7C6C5C4C2C1C0BFBEBDBCBB4D
:10305000BAB9B8B7B6B5B4B3B2B1B0AFAEADACAB48
:10306000AAA9A8A8A7A6A5A4A3A3A2A1A09F9F9E22
:103070009D9C9C9B9A9999989797969595949393D4
:10308000929191908F8F8E8E8D8C8C8B8B8A89896B
:1030900088888787868585848483838282818180EE
:1030A0000000FF070000F87F10F0004248BF4042D8
:1030B000B0FA80F310FA03F10AD0C3F11D0303F54F
:1030C00080634FEA415002EB035202EBD12170477B
:1030D0004FF0000070470000DFF848C170B51CEAEF
:1030E000111E1EBF1CEA13159EEA0C0F95EA0C0F69
:1030F00000F06F8081EA030423EA4C134EEAD47E89
:1031000021EA4C1141F4801143F48013AE44A1FB39
:10311000024CA0FB0365AEF17F7E361955EB0C0522
:10312000A1FB034C4CF10003A0FB021C16EB0C06A8
:10313000654153F10003094218BF46F0010613F43C
:10314000007F0BD14FEA03314FEA0530340341EAE7
:10315000155140EA16506FF003020AE04FEAC3210E
:103160004FEAC520F40241EA555140EA56506FF04B
:10317000020202EB2E4201EB025585EACE710AD023
:103180005FEA440C18BF24F0004450F1000041F104
:10319000000120EAD47040F2FE7C624500D270BD8E
:1031A000A84214BF4FF080444FF04044002E08BFA7
:1031B0000024BEF1806FA8BFA1F1C041BDE87040FE
:1031C00080F282804FF0000001F1C04101F0004127
:1031D00070479EEA0C0F0CEA131518BF95EA0C0F06
:1031E00006D04FF0000081EA030E0EF0004170BDE2
:1031F00000F01CF88900013E00F007B800F009B8A3
:103200004FEA430C5FEA5C5C08D081EA030100F0FE
:103210005BB84FEA410C5FEA5C5CF6D14FF000000E
:10322000014970470000FF070000F87F0EF1020E11
:103230002EF0030E5EF8046B364205D4012A43EBF0
:10324000030515F5001F12D8012841EB010C1CF5F0
:10325000001F0CD80ED14FEAD17C15F5001F0CEBE6
:103260004C0C0CF1020C08BF4CEBD37C04E04FF08B
:10327000080C01E04FEAD37C0CEB4C0526FA05F66E
:1032800006F00706B6F1040C06D20EEB860CBDE87C
:1032900070404CF0010C6047DFE80CF0090B0202B3
:1032A0004FF000414FF00000A1F5002170BD19461C
:1032B0001046012851EB010418BFD4F5001484BF57
:1032C000002001F0004170BD0808A0F500114FEA90
:1032D0003101704743004FEAD30C4FEA3C0C4340A6
:1032E0001FBF40070CF1605113F0FE4F70471CF0F8
:1032F000006F03D100200CF0004170470CF0004338
:1033000043EA507010B540EACC0000F00EF800BF60
:10331000000000924FEA0001FFF7D6BF4FF00041D6
:103320004FF00000A1F5002170470EF1020E2EF0C3
:10333000030E5EF8044B244204D44FEA4102B2F17A
:103340007F4F11D84FEA4003B3F17F4F0CD80ED115
:103350004FEAD07CB2F17F4F0CEB4C0C0CF1020C1D
:1033600008BF4CEBD17C04E04FF0080C01E04FEAC1
:10337000D17C0CEB4C0324FA03F404F00704B4F101
:10338000040C06D20EEB840CBDE810404CF0010C8E
:103390006047DFE80CF0070802024FF00040A0F59C
:1033A000800010BD0846420018BFD2F1807288BF6D
:1033B00000F0004010BD4FF04070E1EE100A704781
:1033C000FF2141EAD050C0057047FDF777B90000F2
:1033D00000000000000001020304060708090000C5
:1033E000000001020304000002400000000000A0F1
:1033F0000000000005400000000000C800000000C0
:103400000C4000000000409C00000000194000003B
:103410000020BCBE0000000034400000BFC91B8E6D
:1034200000000004B5400000504BCFD06607E2CF4B
:10343000010000006C4100003E8251AADFEEA7347B
:1034400001000000D9420000DCB5A0E23A301F972D
:10345000FFFFFFFFB4450000FD25A0C8E9A3C14F51
:10346000FFFFFFFFFF3F00000000008000000000A2
:10347000FF3F00000000008000000000B83400089A
:103480000000002010000000C4010008C83400083B
:103490001000002010080000E00100081C000000DF
:1034A00043000000F8FFFFFF0C0000000E000000CA
:1034B0000F0000002E0000000100000010000000BE
:0834C000000000000024F400EC
:040000050800018965
:00000001FF
